:020000000005F9
:1078000011248FE598E09EBF8DBF84B714BE81FF21
:10781000B8D182E08BB988E18AB996E890BD99E148
:1078200099B981BD8EE081BDC0E0D0E001E025E0E6
:10783000F22E31E1E32E13E088D19FEF980F9630BE
:1078400008F0FCC011B896E490B994E096BF93E0BC
:1078500095BB9EE091BD51E0A3E044EA24E864E9D1
:10786000CEEFDFEFB4EC13E6813011F41CB9E0C0C9
:10787000823039F45F9BFECFECB1F0E080818CB9AF
:10788000D7C0833049F45F9BFECFECB1F0E05F9B43
:10789000FECF8CB18083CCC0853079F55F9BFECF65
:1078A0003CB146BF80E197E206B607FC04C00097F2
:1078B00011F00197F9CF330F33B926BF06B607FC95
:1078C00004C0009711F00197F9CF5F9BFECF3CB148
:1078D000332379F05F9BFECF7CB173B926BF06B628
:1078E00007FC04C0009711F00197F9CFA89531501B
:1078F000EFCF66BF5D9BFECF5DC0843009F060C0F6
:107900005F9BFECF3CB146BF80E197E206B607FC25
:1079100004C0009711F00197F9CF732F770F73B957
:1079200026BF06B607FC04C0009711F00197F9CFF7
:107930005F9BFECF7CB173B926BF06B607FC04C0BF
:10794000009711F00197F9CFA8955F9BFECF7CB10E
:1079500046BF06B607FC04C0009711F00197F9CFA7
:10796000330F316033B9B6BF06B607FC10C00097BD
:1079700071F00197F9CF009721F0019706B607FE45
:10798000FACF5D9BFECF33B13CB9A89571507130F1
:1079900011F0B6BFF3CF26BF06B607FC04C00097B0
:1079A00011F00197F9CF5D9BFECF33B13CB966BFB3
:1079B0005D9BFECF892B11F05CB93AC01CB838C072
:1079C000863079F554BB15BAA5BB14BAA5BB80E5C2
:1079D00093EC31E046BF06B607FC04C0009711F0F7
:1079E0000197F9CF732F770F73B926BF06B607FC3F
:1079F00004C0009711F00197F9CFA89571B17C7F71
:107A0000783119F45D9BFECF3CB93F5F303811F7F8
:107A100066BF5D9BFECF892B11F0DCB909C0CCB9E4
:107A200007C08A3629F488E181BD88E081BDFFCF97
:107A30005F9902C0A895FCCF8CB116CF813471F448
:107A400084D0D82E89D082E8D816F9F0E1E8DE1289
:107A500002C085E001C083E074D070C0823411F4AC
:107A600084E103C0853419F485E080D067C0853592
:107A700041F46BD0C82F69D0D0E0D82BCC0FDD1FDC
:107A80005CC0863521F484E071D080E0E5CF843697
:107A900009F03BC05AD059D0B82E57D0C115F0E7E5
:107AA000DF0718F4FE0117BFE895C12CDD24D3943D
:107AB0004CD0F60181936F01BE12FACFC115F0E7E9
:107AC000DF0718F0FE0117BFE89546D007B600FCA7
:107AD000FDCFFE01A0E0B1E08C9111962C911197A1
:107AE00090E0922B0C0107BFE89511243296129674
:107AF000A03881E0B80781F7FE01F7BEE89507B628
:107B000000FCFDCFE7BEE89519C0843769F41DD0AD
:107B10001CD0D82E1AD020D0FE018591EF0111D0B3
:107B2000DA94D110F9CF0AC0853739F415D08EE137
:107B300008D085E906D082E08FCF0ED080E101D059
:107B40007BCE5D9BFECF8CB908955F9BFECF5C9989
:107B500001C0A8958CB10895F8DF803229F088E142
:107B600081BD88E081BDFFCF84E1EBCFCF93C82FEB
:107B7000ECDFC150E9F7CF91EFCF98E191BD81BD26
:107B80000895282E88E181BD11BCEE27FF270994B6
:040000030000780081
:00000001FF
